9045890524001      2400100400     0000      000000000000000000CARDNT16      001                                                                                         
1500481583003**********   74589053354009116322203000000011220000000003483840000000003483840INDRIVE-WB               SANTO DOMINGODO 412100000     9100N1526370 1   4001B
1501   A0701    000000 4-4001  2400141791                              F1       349116470      007931070000000000007 4001 0      2                           000000000  
1504          DF0002                          00104  10.4-4001  24001417910000000000                    F100000000                                                      
150530335466220535500000000348384000        0000 000000000000                              000000000557280C0000000000000000000000000000F             0000000000000000   
1500481583003**********   74589053354009116322229000000011220000000003483840000000003483840INDRIVE-WB               SANTO DOMINGODO 412100000     9100N1622540 1   4001B
1501   A0701    000000 4-4001  2400143864                              F1       349116470      007931070000000000007 4001 0      2                           000000000  
1504          DF0002                          00104  10.4-4001  24001438640000000000                    F100000000                                                      
150558335469933483100000000348384000        0000 000000000000                              000000000557280C0000000000000000000000000000F             0000000000000000   
1500481583003**********   74589053354009116322211000000011220000000003483840000000003483840INDRIVE-WB               SANTO DOMINGODO 412100000     9100N1526370 1   4001B
1501   A0701    000000 4-4001  2400156584                              F1       349116470      007931070000000000007 4001 0      2                           000000000  
1504          DF0002                          00104  10.4-4001  24001565840000000000                    F100000000                                                      
150538335466252578100000000348384000        0000 000000000000                              000000000557280C0000000000000000000000000000F             0000000000000000   
1500411773703**********   74589053354009111365231000000011219000000000958840000000000958840UBER RIDES-WB            SANTO DOMINGODO 412100000     9100N1106060 1   4001B
1501   A0701    000000 4-4001  2400158622                              F1       349123807      008301690000000000007 4001 0      2                           000000000  
1504          DF0002                          00104  10.4-4001  24001586220000000000                    F100000000                                                      
150558335410856745900000000095884000        0000 000000000000                              000000000153280C0000000000000000000000000000F             0000000000000000   
1500420767029**********   74589053361009179335952000000011227000000035500840000000035500840DUFRY AERO CIBAO USD     LICEY AL MEDIDO 531100000     9120N0039175 1   4001B
1501   A0701    000000 6.1-40022401839284                              F1       35000202100000000935426000000000000  4001 0      2                           000000000  
1504          DF0002                          00126.112.6.1-400224018392840000000000                    F100000000                                                      
150546336181570115600000003550084000        0000 000000000000                              000000003905000C0000000000000000000000000000F             0000000000000000   
1500411773501**********   74589053351009089827322000000011216000000049806840000000049806840CASBEACH                 HIGUEY       DO 799500000     9130N1336845 1   4001B
1501   A0701    000000 7-4002  2401869904                              F1 8     34910628100000000796118000000000000  4001 0      2                           000000000  
1504          DF0002                          00137  13.7-4002  24018699040000000000                    F100000000                                                      
150558335109485808800000004980684000        0000 000000000000                              000000005478660C0000000000000000000000000000F             0000000000000000   
1500411773501**********   74589053351009089827348000000011216000000049806840000000049806840CASBEACH                 HIGUEY       DO 799500000     9130N1336845 1   4001B
1501   A0701    000000 7-4002  2401874214                              F1 8     34910628100000000796118000000000000  4001 0      2                           000000000  
1504          DF0002                          00137  13.7-4002  24018742140000000000                    F100000000                                                      
150538335109732227300000004980684000        0000 000000000000                              000000005478660C0000000000000000000000000000F             0000000000000000   
1500411773501**********   74589053351009089827330000000011216000000049806840000000049806840CASBEACH                 HIGUEY       DO 799500000     9130N1336845 1   4001B
1501   A0701    000000 7-4002  2401871389                              F1 8     34910628100000000796118000000000000  4001 0      2                           000000000  
1504          DF0002                          00137  13.7-4002  24018713890000000000                    F100000000                                                      
150530335109635394300000004980684000        0000 000000000000                              000000005478660C0000000000000000000000000000F             0000000000000000   
1500411773501**********   74589053351009089827280000000011216000000176313840000000176313840CASBEACH                 HIGUEY       DO 799500000     9130N1334895 1   4001B
1501   A0701    000000 7-4002  2401876072                              F1 8     34910628100000000796118000000000000  4001 0      2                           000000000  
1504          DF0002                          00137  13.7-4002  24018760720000000000                    F100000000                                                      
150538335105937883300000017631384000        0000 000000000000                              000000019394430C0000000000000000000000000000F             0000000000000000   
910045890524001000000000372638000000000009000001000000000037000000        000000010000000000000000000000000000372638000000000000000000000000000000000000000000000       
46004101250000009000566233001202400112021315              V1100W 9000566233410125 SMS POS NB000000000000410125                  Y4589050000Y9999840000000              0
46004101250000009000566931001202400112021315              V1100W 90005669314101250002     NB000000000000410125                  Y4101250002Y0002840000000              0
46004101250000009000566932001202400112021315              V1100W 90005669327371570002     NB000000000000410125                  Y7371570002Y0002840000000              0
4600410125000000900056623390005662359000386909001840Y     V2110  20240012024001                                                                                        0
4600410125000000900056693190005662359000386909001840Y     V2110  20240012024001                                                                                        0
4600410125000000900056693290005662359000386909001840Y     V2110  20240012024001                                                                                        0
4600410125000000900056623390005662359000386909001840  Y   V3115  20240012024001                                                                                        0
4600410125000000900056693190005662359000386909001840  Y   V3115  20240012024001                                                                                        0
4600410125000000900056693290005662359000386909001840  Y   V3115  20240012024001                                                                                        0
4600410125000000900056623390005662359000386909001       Y V4120  20240012024001                                                                                        0
4600410125000000900056693190005662359000386909001       Y V4120  20240012024001                                                                                        0
4600410125000000900056693290005662359000386909001       Y V4120  20240012024001                                                                                        0
4600410125000000900056623390005662359000386909001       Y V4130  20240012024001                                                                                        0
4600410125000000900056693190005662359000386909001       Y V4130  20240012024001                                                                                        0
4600410125000000900056693290005662359000386909001       Y V4130  20240012024001                                                                                        0
4600410125000000900056623390005662359000386909001      0Y V4135  2024001202400120240012024001                                                                          0
4600410125000000900056693190005662359000386909001      0Y V4135  2024001202400120240012024001                                                                          0
4600410125000000900056693290005662359000386909001      0Y V4135  2024001202400120240012024001                                                                          0
4600410125000000900056623390005662359000386909001       Y V4140  20240012024001                                                                                        0
4600410125000000900056693190005662359000386909001       Y V4140  20240012024001                                                                                        0
4600410125000000900056693290005662359000386909001       Y V4140  20240012024001                                                                                        0
4600410125000000900056623390005662359000386909001       Y V4210  20240012024001                                                                                        0
4600410125000000900056693190005662359000386909001       Y V4210  20240012024001                                                                                        0
4600410125000000900056693290005662359000386909001       Y V4210  20240012024001                                                                                        0
46004101250000009000566234018202400112021315              V1100W 9000566234410125 SMS POS YB000000000000410125                  Y4589050000Y9999214000000              0
46004101250000009000566933018202400112021315              V1100W 90005669334101250002     YB000000000000410125                  Y4101250002Y0002214000000              0
46004101250000009000566934018202400112021315              V1100W 90005669347371570002     YB000000000000410125                  Y7371570002Y0002214000000              0
4600410125000000900056623390005662359000386909001840Y     V2110M        202336520233352023365                                                                          0
4600410125000000900056693190005662359000386909001840      V2110M        202336520233352023365I1000000000000000000000000000000000000000000000000000000000000            0
4600410125000000900056693190005662359000386909001840      V2110M        202336520233352023365I2000000000000000000000000000000000000000000000000000000000000            0
4600410125000000900056693190005662359000386909001840      V2110M        202336520233352023365I3000000000000002000000000000000000000000000359000000000000359DB          0
4600410125000000900056693190005662359000386909001840      V2110M        202336520233352023365I9000000000000002000000000000000000000000000359000000000000359DB          0
4600410125000000900056693190005662359000386909001840      V2110M        202336520233352023365F1               000000000000000000000000000000000000000000000            0
4600410125000000900056693190005662359000386909001840      V2110M        202336520233352023365F2               000000000000000000000000000000000000000000000            0
4600410125000000900056693190005662359000386909001840      V2110M        202336520233352023365F3               000000000000000000000000000000000000000000000            0
4600410125000000900056693190005662359000386909001840      V2110M        202336520233352023365F9               000000000000000000000000000000000000000000000            0
4600410125000000900056693190005662359000386909001840      V2110M        202336520233352023365C1               000000000000000000000000000000000000000000000            0
4600410125000000900056693190005662359000386909001840      V2110M        202336520233352023365C2               000000000000000000000000000000000000000000000            0
4600410125000000900056693190005662359000386909001840      V2110M        202336520233352023365C3               000000000000000000000000000000000000000000000            0
4600410125000000900056693190005662359000386909001840      V2110M        202336520233352023365C9               000000000000000000000000000000000000000000000            0
4600410125000000900056693190005662359000386909001840      V2110M        202336520233352023365T1               000000000000000000000000000000000000000000000            0
4600410125000000900056693190005662359000386909001840      V2110M        202336520233352023365T2               000000000000000000000000000000000000000000000            0
4600410125000000900056693190005662359000386909001840      V2110M        202336520233352023365T3               000000000000000000000000000359000000000000359DB          0
4600410125000000900056693190005662359000386909001840      V2110M        202336520233352023365T9               000000000000000000000000000359000000000000359DB          0
4600410125000000900056693290005662359000386909001840Y     V2110M        202336520233352023365                                                                          0
4600410125000000900056623390005662359000386909001840  Y   V3115M        202336520233352023365                                                                          0
4600410125000000900056693190005662359000386909001840I1    V3115M        202336520233352023365     0000000000000000000000000000000000000000000000000000000000000000000  0
4600410125000000900056693190005662359000386909001840F1    V3115M        202336520233352023365     0000000000000000000000000000000000000000000000000000000000000000000  0
4600410125000000900056693190005662359000386909001840C1    V3115M        202336520233352023365     0000000000000000000000000000000000000000000000000000000000000000000  0
4600410125000000900056693190005662359000386909001840T1    V3115M        202336520233352023365     0000000000000000000000000000000000000000000000000000000000000000000  0
4600410125000000900056693190005662359000386909001840I2    V3115M        202336520233352023365     0000000000000000000000000000000000000000000000000000000000000000000  0
4600410125000000900056693190005662359000386909001840F2    V3115M        202336520233352023365     0000000000000000000000000000000000000000000000000000000000000000000  0
4600410125000000900056693190005662359000386909001840C2    V3115M        202336520233352023365     0000000000000000000000000000000000000000000000000000000000000000000  0
4600410125000000900056693190005662359000386909001840T2    V3115M        202336520233352023365     0000000000000000000000000000000000000000000000000000000000000000000  0
4600410125000000900056693190005662359000386909001840I3    V3115M        2023365202333520233655191N0000000000000000000000000000000000002000000000000359000000000000359DB0
4600410125000000900056693190005662359000386909001840I3    V3115M        202336520233352023365     0000000000000000000000000000000000002000000000000359000000000000359DB0
4600410125000000900056693190005662359000386909001840F3    V3115M        202336520233352023365     0000000000000000000000000000000000000000000000000000000000000000000  0
4600410125000000900056693190005662359000386909001840C3    V3115M        202336520233352023365     0000000000000000000000000000000000000000000000000000000000000000000  0
4600410125000000900056693190005662359000386909001840T3    V3115M        202336520233352023365     0000000000000000000000000000000000002000000000000359000000000000359DB0
4600410125000000900056693190005662359000386909001840T9    V3115M        202336520233352023365     0000000000000000000000000000000000002000000000000359000000000000359DB0
4600410125000000900056693290005662359000386909001840  Y   V3115M        202336520233352023365                                                                          0
4600410125000000900056623390005662359000386909001       Y V4120M 0000000202336520233352023365                                                                          0
46004101250000009000566931900056623590003869090018408403  V4120M 0000000202336520233352023365   5190NN                              10                                 0
4601       000000000000002               000000000000359DB000000000000000  000000000000359DB                                                                            
46004101250000009000566931900056623590003869090018408403  V4120M 0000000202336520233352023365   519                                 05                                 0
4601       000000000000002               000000000000359DB000000000000000  000000000000359DB                                                                            
46004101250000009000566931900056623590003869090018408403  V4120M 0000000202336520233352023365   519                                 06                                 0
4601                                                                       000000000000359DB                                                                            
46004101250000009000566931900056623590003869090018408403  V4120M 0000000202336520233352023365                                       01                                 0
4601       000000000000002               000000000000359DB000000000000000  000000000000359DB                                                                            
46004101250000009000566931900056623590003869090018408403  V4120M 0000000202336520233352023365                                       02                                 0
4601                                                                       000000000000359DB                                                                            
4600410125000000900056693290005662359000386909001       Y V4120M 0000000202336520233352023365                                                                          0
4600410125000000900056623390005662359000386909001       Y V4130M 0000000202336520233352023365                                                                          0
4600410125000000900056693190005662359000386909001       Y V4130M 0000000202336520233352023365                                                                          0
4600410125000000900056693290005662359000386909001       Y V4130M 0000000202336520233352023365                                                                          0
4600410125000000900056623390005662359000386909001       Y V4140M 0000000202336520233352023365                                                                          0
4600410125000000900056693190005662359000386909001       Y V4140M 0000000202336520233352023365                                                                          0
4600410125000000900056693290005662359000386909001       Y V4140M 0000000202336520233352023365                                                                          0
4600410125000000900056623390005662359000386909001       Y V4210M 0000000202336520233352023365                                                                          0
4600410125000000900056693190005662359000386909001       Y V4210M 0000000202336520233352023365                                                                          0
4600410125000000900056693290005662359000386909001       Y V4210M 0000000202336520233352023365                                                                          0
4600410125000000900056693390005662369000566933018214      V2110M        202336520233352023365I1000000000000024000000002465100000000002465100000000000000000            0
4600410125000000900056693390005662369000566933018214      V2110M        202336520233352023365I2000000000000000000000000000000000000000000000000000000000000            0
4600410125000000900056693390005662369000566933018214      V2110M        202336520233352023365I3000000000000000000000000000000000000000000000000000000000000            0
4600410125000000900056693390005662369000566933018214      V2110M        202336520233352023365I9000000000000024000000002465100000000002465100000000000000000            0
4600410125000000900056693390005662369000566933018214      V2110M        202336520233352023365F1               000000000000000000000000001374000000000001374DB          0
4600410125000000900056693390005662369000566933018214      V2110M        202336520233352023365F2               000000000000000000000000000000000000000000000            0
4600410125000000900056693390005662369000566933018214      V2110M        202336520233352023365F3               000000000000000000000000000000000000000000000            0
4600410125000000900056693390005662369000566933018214      V2110M        202336520233352023365F9               000000000000000000000000001374000000000001374DB          0
4600410125000000900056693390005662369000566933018214      V2110M        202336520233352023365C1               000000000000000000000000000000000000000000000            0
4600410125000000900056693390005662369000566933018214      V2110M        202336520233352023365C2               000000000000000000000000000000000000000000000            0
4600410125000000900056693390005662369000566933018214      V2110M        202336520233352023365C3               000000000000000000000000000000000000000000000            0
4600410125000000900056693390005662369000566933018214      V2110M        202336520233352023365C9               000000000000000000000000000000000000000000000            0
4600410125000000900056693390005662369000566933018214      V2110M        202336520233352023365T1               000000002465100000000002466474000000000001374DB          0
4600410125000000900056693390005662369000566933018214      V2110M        202336520233352023365T2               000000000000000000000000000000000000000000000            0
4600410125000000900056693390005662369000566933018214      V2110M        202336520233352023365T3               000000000000000000000000000000000000000000000            0
4600410125000000900056693390005662369000566933018214      V2110M        202336520233352023365T9               000000002465100000000002466474000000000001374DB          0
4600410125000000900056693390005662369000566933018214I1    V3115M        2023365202333520233651001N0000000001200000000246510000000000000000000000000000000000002465100CR0
4600410125000000900056693390005662369000566933018214I1    V3115M        2023365202333520233653301N0000000000000000000000000000000000012000000002465100000000002465100DB0
4600410125000000900056693390005662369000566933018214I1    V3115M        202336520233352023365     0000000001200000000246510000000000012000000002465100000000000000000  0
4600410125000000900056693390005662369000566933018214F1    V3115M        202336520233352023365     0000000000000000000000000000000000000000000000001374000000000001374DB0
4600410125000000900056693390005662369000566933018214C1    V3115M        202336520233352023365     0000000000000000000000000000000000000000000000000000000000000000000  0
4600410125000000900056693390005662369000566933018214T1    V3115M        202336520233352023365     0000000001200000000246510000000000012000000002466474000000000001374DB0
4600410125000000900056693390005662369000566933018214I2    V3115M        202336520233352023365     0000000000000000000000000000000000000000000000000000000000000000000  0
4600410125000000900056693390005662369000566933018214F2    V3115M        202336520233352023365     0000000000000000000000000000000000000000000000000000000000000000000  0
4600410125000000900056693390005662369000566933018214C2    V3115M        202336520233352023365     0000000000000000000000000000000000000000000000000000000000000000000  0
4600410125000000900056693390005662369000566933018214T2    V3115M        202336520233352023365     0000000000000000000000000000000000000000000000000000000000000000000  0
4600410125000000900056693390005662369000566933018214I3    V3115M        202336520233352023365     0000000000000000000000000000000000000000000000000000000000000000000  0
4600410125000000900056693390005662369000566933018214F3    V3115M        202336520233352023365     0000000000000000000000000000000000000000000000000000000000000000000  0
4600410125000000900056693390005662369000566933018214C3    V3115M        202336520233352023365     0000000000000000000000000000000000000000000000000000000000000000000  0
4600410125000000900056693390005662369000566933018214T3    V3115M        202336520233352023365     0000000000000000000000000000000000000000000000000000000000000000000  0
4600410125000000900056693390005662369000566933018214T9    V3115M        202336520233352023365     0000000001200000000246510000000000012000000002466474000000000001374DB0
46004101250000009000566933900056623690005669330182142141  V4120M 0000000202336520233352023365   1001NN                              10                                 0
4601       000000000000012               000000002465100CR000000002465100CR000000000000000                                                                              
46004101250000009000566933900056623690005669330182142141  V4120M 0000000202336520233352023365   100                                 05                                 0
4601       000000000000012               000000002465100CR000000002465100CR000000000000000                                                                              
46004101250000009000566933900056623690005669330182142141  V4120M 0000000202336520233352023365   100                                 06                                 0
4601                                                      000000002465100CR                                                                                             
46004101250000009000566933900056623690005669330182142141  V4120M 0000000202336520233352023365   3301NN                              10                                 0
4601       000000000000012               000000002465100DB000000000000000  000000002465100DB                                                                            
46004101250000009000566933900056623690005669330182142141  V4120M 0000000202336520233352023365   330                                 05                                 0
4601       000000000000012               000000002465100DB000000000000000  000000002465100DB                                                                            
46004101250000009000566933900056623690005669330182142141  V4120M 0000000202336520233352023365   330                                 06                                 0
4601                                                                       000000002465100DB                                                                            
46004101250000009000566933900056623690005669330182142141  V4120M 0000000202336520233352023365                                       01                                 0
4601       000000000000024               000000000000000  000000002465100CR000000002465100DB                                                                            
46004101250000009000566933900056623690005669330182142141  V4120M 0000000202336520233352023365                                       02                                 0
4601                                                      000000000000000                                                                                               
4600410125000000900056693390005662369000566933018214   1  V4130M 0000000202336520233352023365   1001N 05N214214    AFT AA NNSS      10                                 0
4601       000000000000012               000000002465100CR000000000000000  000000000000687DB000000000000000                                                             
4600410125000000900056693390005662369000566933018214   1  V4130M 0000000202336520233352023365   100                                 05                                 0
4601       000000000000012               000000002465100CR000000000000000  000000000000687DB                                                                            
4600410125000000900056693390005662369000566933018214   1  V4130M 0000000202336520233352023365   100                                 06                                 0
4601                                                                       000000000000687DB                                                                            
4600410125000000900056693390005662369000566933018214   1  V4130M 0000000202336520233352023365   3301N 05N214214    OC AA NNSS       10                                 0
4601       000000000000012               000000002465100DB000000000000000  000000000000687DB000000000000000                                                             
4600410125000000900056693390005662369000566933018214   1  V4130M 0000000202336520233352023365   330                                 05                                 0
4601       000000000000012               000000002465100DB000000000000000  000000000000687DB                                                                            
4600410125000000900056693390005662369000566933018214   1  V4130M 0000000202336520233352023365   330                                 06                                 0
4601                                                                       000000000000687DB                                                                            
4600410125000000900056693390005662369000566933018214   1  V4130M 0000000202336520233352023365                                       01                                 0
4601                                                      000000000000000  000000000001374DB                                                                            
4600410125000000900056693390005662369000566933018214   1  V4130M 0000000202336520233352023365                                       02                                 0
4601                                                                       000000000001374DB                                                                            
46004589050000009000386908001202400112021315              V1100W 9000386908CARDNET        N                                     N          N    840000                 0
46004589050000009000386908001202400122021315              V1100W 9000386909CARDNET FT     Y                                     N          N    840000                 0
46004589050000009000386908001202400132021315              V1100W 9000386910458905 CARDNET NB000000000000458905                  Y4004350000Y9999840000000              0
46004589050000009000386908001202400132021315              V1100W 9000386910458905 CARDNET NB000000000000458905                  Y4589050000Y9999840000000              0
46004589050000009000386908001202400132021315              V1100W 9000566235VISA DIRECT    N                                     N          N    840000                 0
46004589050000009000386908001202400142021315              V1100W 9000566233410125 SMS POS NB000000000000410125                  Y4589050000Y9999840000000              0
46004589050000009000386908001202400142021315              V1100W 90005669314101250002     NB000000000000410125                  Y4101250002Y0002840000000              0
46004589050000009000386908001202400142021315              V1100W 90005669327371570002     NB000000000000410125                  Y7371570002Y0002840000000              0
46004589050000009000386909001202400112021315              V1100W 9000386909CARDNET FT     Y                                     N          N    840000                 0
46004589050000009000386909001202400122021315              V1100W 9000386910458905 CARDNET NB000000000000458905                  Y4004350000Y9999840000000              0
46004589050000009000386909001202400122021315              V1100W 9000386910458905 CARDNET NB000000000000458905                  Y4589050000Y9999840000000              0
46004589050000009000386909001202400122021315              V1100W 9000566235VISA DIRECT    N                                     N          N    840000                 0
46004589050000009000386909001202400132021315              V1100W 9000566233410125 SMS POS NB000000000000410125                  Y4589050000Y9999840000000              0
46004589050000009000386909001202400132021315              V1100W 90005669314101250002     NB000000000000410125                  Y4101250002Y0002840000000              0
46004589050000009000386909001202400132021315              V1100W 90005669327371570002     NB000000000000410125                  Y7371570002Y0002840000000              0
46004589050000009000386910001202400112018106              V1100W 9000386910458905 CARDNET NB000000000000458905                  Y4004350000Y9999840000000              0
46004589050000009000386910001202400112018106              V1100W 9000386910458905 CARDNET NB000000000000458905                  Y4589050000Y9999840000000              0
46004589050000009000566235001202400112021315              V1100W 9000566235VISA DIRECT    N                                     N          N    840000                 0
46004589050000009000566235001202400122021315              V1100W 9000566233410125 SMS POS NB000000000000410125                  Y4589050000Y9999840000000              0
46004589050000009000566235001202400122021315              V1100W 90005669314101250002     NB000000000000410125                  Y4101250002Y0002840000000              0
46004589050000009000566235001202400122021315              V1100W 90005669327371570002     NB000000000000410125                  Y7371570002Y0002840000000              0
460045890500000090003869089000386908          001840      V2110  20240012024001              I1000000000035032000000261171774000000000425460000000260746314CR          0
460045890500000090003869089000386908          001840      V2110  20240012024001              I2000000000000000000000000000000000000000000000000000000000000            0
460045890500000090003869089000386908          001840      V2110  20240012024001              I3000000000000000000000000000000000000000000000000000000000000            0
460045890500000090003869089000386908          001840      V2110  20240012024001              I9000000000035032000000261171774000000000425460000000260746314CR          0
460045890500000090003869089000386908          001840      V2110  20240012024001              F1               000000000005194000000004109531000000004104337DB          0
460045890500000090003869089000386908          001840      V2110  20240012024001              F2               000000000000000000000000000000000000000000000            0
460045890500000090003869089000386908          001840      V2110  20240012024001              F3               000000000000000000000000000000000000000000000            0
460045890500000090003869089000386908          001840      V2110  20240012024001              F9               000000000005194000000004109531000000004104337DB          0
460045890500000090003869089000386908          001840      V2110  20240012024001              C1               000000000000000000000000000000000000000000000            0
460045890500000090003869089000386908          001840      V2110  20240012024001              C2               000000000000000000000000000000000000000000000            0
460045890500000090003869089000386908          001840      V2110  20240012024001              C3               000000000000000000000000000000000000000000000            0
460045890500000090003869089000386908          001840      V2110  20240012024001              C9               000000000000000000000000000000000000000000000            0
460045890500000090003869089000386908          001840      V2110  20240012024001              T1               000000261176968000000004534991000000256641977CR          0
460045890500000090003869089000386908          001840      V2110  20240012024001              T2               000000000000000000000000000000000000000000000            0
460045890500000090003869089000386908          001840      V2110  20240012024001              T3               000000000000000000000000000000000000000000000            0
460045890500000090003869089000386908          001840      V2110  20240012024001              T9               000000261176968000000004534991000000256641977CR          0
4600458905000000900038690990003869089000386909001840      V2110  20240012024001              I1000000000035032000000261171774000000000425460000000260746314CR          0
4600458905000000900038690990003869089000386909001840      V2110  20240012024001              I2000000000000000000000000000000000000000000000000000000000000            0
4600458905000000900038690990003869089000386909001840      V2110  20240012024001              I3000000000000000000000000000000000000000000000000000000000000            0
4600458905000000900038690990003869089000386909001840      V2110  20240012024001              I9000000000035032000000261171774000000000425460000000260746314CR          0
4600458905000000900038690990003869089000386909001840      V2110  20240012024001              F1               000000000005194000000004109531000000004104337DB          0
4600458905000000900038690990003869089000386909001840      V2110  20240012024001              F2               000000000000000000000000000000000000000000000            0
4600458905000000900038690990003869089000386909001840      V2110  20240012024001              F3               000000000000000000000000000000000000000000000            0
4600458905000000900038690990003869089000386909001840      V2110  20240012024001              F9               000000000005194000000004109531000000004104337DB          0
4600458905000000900038690990003869089000386909001840      V2110  20240012024001              C1               000000000000000000000000000000000000000000000            0
4600458905000000900038690990003869089000386909001840      V2110  20240012024001              C2               000000000000000000000000000000000000000000000            0
4600458905000000900038690990003869089000386909001840      V2110  20240012024001              C3               000000000000000000000000000000000000000000000            0
4600458905000000900038690990003869089000386909001840      V2110  20240012024001              C9               000000000000000000000000000000000000000000000            0
4600458905000000900038690990003869089000386909001840      V2110  20240012024001              T1               000000261176968000000004534991000000256641977CR          0
4600458905000000900038690990003869089000386909001840      V2110  20240012024001              T2               000000000000000000000000000000000000000000000            0
4600458905000000900038690990003869089000386909001840      V2110  20240012024001              T3               000000000000000000000000000000000000000000000            0
4600458905000000900038690990003869089000386909001840      V2110  20240012024001              T9               000000261176968000000004534991000000256641977CR          0
4600458905000000900038691090003869099000386909001840      V2110  20240012024001              I1000000000035032000000261171774000000000425460000000260746314CR          0
4600458905000000900038691090003869099000386909001840      V2110  20240012024001              I2000000000000000000000000000000000000000000000000000000000000            0
4600458905000000900038691090003869099000386909001840      V2110  20240012024001              I3000000000000000000000000000000000000000000000000000000000000            0
4600458905000000900038691090003869099000386909001840      V2110  20240012024001              I9000000000035032000000261171774000000000425460000000260746314CR          0
4600458905000000900038691090003869099000386909001840      V2110  20240012024001              F1               000000000005194000000004109531000000004104337DB          0
4600458905000000900038691090003869099000386909001840      V2110  20240012024001              F2               000000000000000000000000000000000000000000000            0
4600458905000000900038691090003869099000386909001840      V2110  20240012024001              F3               000000000000000000000000000000000000000000000            0
4600458905000000900038691090003869099000386909001840      V2110  20240012024001              F9               000000000005194000000004109531000000004104337DB          0
4600458905000000900038691090003869099000386909001840      V2110  20240012024001              C1               000000000000000000000000000000000000000000000            0
4600458905000000900038691090003869099000386909001840      V2110  20240012024001              C2               000000000000000000000000000000000000000000000            0
4600458905000000900038691090003869099000386909001840      V2110  20240012024001              C3               000000000000000000000000000000000000000000000            0
4600458905000000900038691090003869099000386909001840      V2110  20240012024001              C9               000000000000000000000000000000000000000000000            0
4600458905000000900038691090003869099000386909001840      V2110  20240012024001              T1               000000261176968000000004534991000000256641977CR          0
4600458905000000900038691090003869099000386909001840      V2110  20240012024001              T2               000000000000000000000000000000000000000000000            0
4600458905000000900038691090003869099000386909001840      V2110  20240012024001              T3               000000000000000000000000000000000000000000000            0
4600458905000000900038691090003869099000386909001840      V2110  20240012024001              T9               000000261176968000000004534991000000256641977CR          0
4600458905000000900056623590003869099000386909001840Y     V2110  20240012024001                                                                                        0
460045890500000090003869089000386908          001840I1    V3115  20240012024001              1001N0000003486300000025470333400000000000000000000000000000000254703334CR0
460045890500000090003869089000386908          001840I1    V3115  20240012024001              1201N0000000015400000000645151100000000000000000000000000000000006451511CR0
460045890500000090003869089000386908          001840I1    V3115  20240012024001                 7N0000000000000000000000000000000000014000000000425460000000000425460DB0
460045890500000090003869089000386908          001840I1    V3115  20240012024001                 8N0000000000100000000001692900000000000000000000000000000000000016929CR0
460045890500000090003869089000386908          001840I1    V3115  20240012024001                   0000003501800000026117177400000000014000000000425460000000260746314CR0
460045890500000090003869089000386908          001840F1    V3115  20240012024001                   0000000000000000000000519400000000000000000004109531000000004104337DB0
460045890500000090003869089000386908          001840C1    V3115  20240012024001                   0000000000000000000000000000000000000000000000000000000000000000000  0
460045890500000090003869089000386908          001840T1    V3115  20240012024001                   0000003501800000026117696800000000014000000004534991000000256641977CR0
460045890500000090003869089000386908          001840I2    V3115  20240012024001                   0000000000000000000000000000000000000000000000000000000000000000000  0
460045890500000090003869089000386908          001840F2    V3115  20240012024001                   0000000000000000000000000000000000000000000000000000000000000000000  0
460045890500000090003869089000386908          001840C2    V3115  20240012024001                   0000000000000000000000000000000000000000000000000000000000000000000  0
460045890500000090003869089000386908          001840T2    V3115  20240012024001                   0000000000000000000000000000000000000000000000000000000000000000000  0
460045890500000090003869089000386908          001840I3    V3115  20240012024001                   0000000000000000000000000000000000000000000000000000000000000000000  0
460045890500000090003869089000386908          001840F3    V3115  20240012024001                   0000000000000000000000000000000000000000000000000000000000000000000  0
460045890500000090003869089000386908          001840C3    V3115  20240012024001                   0000000000000000000000000000000000000000000000000000000000000000000  0
460045890500000090003869089000386908          001840T3    V3115  20240012024001                   0000000000000000000000000000000000000000000000000000000000000000000  0
460045890500000090003869089000386908          001840T9    V3115  20240012024001                   0000003501800000026117696800000000014000000004534991000000256641977CR0
910045890524001000000000000000000000000000000002000000000233000000        000000212000000000000000000000000000000000000000000000000000000000000000000000000000000       
4600458905000000900038690990003869089000386909001840I1    V3115  20240012024001              1001N0000003486300000025470333400000000000000000000000000000000254703334CR0
4600458905000000900038690990003869089000386909001840I1    V3115  20240012024001              1201N0000000015400000000645151100000000000000000000000000000000006451511CR0
4600458905000000900038690990003869089000386909001840I1    V3115  20240012024001                 7N0000000000000000000000000000000000014000000000425460000000000425460DB0
4600458905000000900038690990003869089000386909001840I1    V3115  20240012024001                 8N0000000000100000000001692900000000000000000000000000000000000016929CR0
4600458905000000900038690990003869089000386909001840I1    V3115  20240012024001                   0000003501800000026117177400000000014000000000425460000000260746314CR0
4600458905000000900038690990003869089000386909001840F1    V3115  20240012024001                   0000000000000000000000519400000000000000000004109531000000004104337DB0
4600458905000000900038690990003869089000386909001840C1    V3115  20240012024001                   0000000000000000000000000000000000000000000000000000000000000000000  0
4600458905000000900038690990003869089000386909001840T1    V3115  20240012024001                   0000003501800000026117696800000000014000000004534991000000256641977CR0
4600458905000000900038690990003869089000386909001840I2    V3115  20240012024001                   0000000000000000000000000000000000000000000000000000000000000000000  0
4600458905000000900038690990003869089000386909001840F2    V3115  20240012024001                   0000000000000000000000000000000000000000000000000000000000000000000  0
4600458905000000900038690990003869089000386909001840C2    V3115  20240012024001                   0000000000000000000000000000000000000000000000000000000000000000000  0
4600458905000000900038690990003869089000386909001840T2    V3115  20240012024001                   0000000000000000000000000000000000000000000000000000000000000000000  0
4600458905000000900038690990003869089000386909001840I3    V3115  20240012024001                   0000000000000000000000000000000000000000000000000000000000000000000  0
4600458905000000900038690990003869089000386909001840F3    V3115  20240012024001                   0000000000000000000000000000000000000000000000000000000000000000000  0
4600458905000000900038690990003869089000386909001840C3    V3115  20240012024001                   0000000000000000000000000000000000000000000000000000000000000000000  0
4600458905000000900038690990003869089000386909001840T3    V3115  20240012024001                   0000000000000000000000000000000000000000000000000000000000000000000  0
4600458905000000900038690990003869089000386909001840T9    V3115  20240012024001                   0000003501800000026117696800000000014000000004534991000000256641977CR0
4600458905000000900038691090003869099000386909001840I1    V3115  20240012024001              1001N0000003486300000025470333400000000000000000000000000000000254703334CR0
4600458905000000900038691090003869099000386909001840I1    V3115  20240012024001              1201N0000000015400000000645151100000000000000000000000000000000006451511CR0
4600458905000000900038691090003869099000386909001840I1    V3115  20240012024001                 7N0000000000000000000000000000000000014000000000425460000000000425460DB0
4600458905000000900038691090003869099000386909001840I1    V3115  20240012024001                 8N0000000000100000000001692900000000000000000000000000000000000016929CR0
4600458905000000900038691090003869099000386909001840I1    V3115  20240012024001                   0000003501800000026117177400000000014000000000425460000000260746314CR0
4600458905000000900038691090003869099000386909001840F1    V3115  20240012024001                   0000000000000000000000519400000000000000000004109531000000004104337DB0
4600458905000000900038691090003869099000386909001840C1    V3115  20240012024001                   0000000000000000000000000000000000000000000000000000000000000000000  0
4600458905000000900038691090003869099000386909001840T1    V3115  20240012024001                   0000003501800000026117696800000000014000000004534991000000256641977CR0
4600458905000000900038691090003869099000386909001840I2    V3115  20240012024001                   0000000000000000000000000000000000000000000000000000000000000000000  0
4600458905000000900038691090003869099000386909001840F2    V3115  20240012024001                   0000000000000000000000000000000000000000000000000000000000000000000  0
4600458905000000900038691090003869099000386909001840C2    V3115  20240012024001                   0000000000000000000000000000000000000000000000000000000000000000000  0
4600458905000000900038691090003869099000386909001840T2    V3115  20240012024001                   0000000000000000000000000000000000000000000000000000000000000000000  0
4600458905000000900038691090003869099000386909001840I3    V3115  20240012024001                   0000000000000000000000000000000000000000000000000000000000000000000  0
4600458905000000900038691090003869099000386909001840F3    V3115  20240012024001                   0000000000000000000000000000000000000000000000000000000000000000000  0
4600458905000000900038691090003869099000386909001840C3    V3115  20240012024001                   0000000000000000000000000000000000000000000000000000000000000000000  0
4600458905000000900038691090003869099000386909001840T3    V3115  20240012024001                   0000000000000000000000000000000000000000000000000000000000000000000  0
4600458905000000900038691090003869099000386909001840T9    V3115  20240012024001                   0000003501800000026117696800000000014000000004534991000000256641977CR0
4600458905000000900056623590003869099000386909001840  Y   V3115  20240012024001                                                                                        0
460045890500000090003869089000386908          0018407841  V4120  20240012024001                 1001NN                              10                                 0
4601A0701  000000000000002               000000000062380CR000000000016981CR000000000000000                                                                              
460045890500000090003869089000386908          0018407841  V4120  20240012024001                 100                                 05                                 0
4601       000000000000002               000000000062380CR000000000016981CR000000000000000                                                                              
460045890500000090003869089000386908          0018407841  V4120  20240012024001                 100                                 06                                 0
4601                                                      000000000016981CR                                                                                             
460045890500000090003869089000386908          0018407841  V4120  20240012024001                                                     01                                 0
4601       000000000000002               000000000062380CR000000000016981CR000000000000000                                                                              
460045890500000090003869089000386908          0018407841  V4120  20240012024001                                                     02                                 0
4601                                                      000000000016981CR                                                                                             
460045890500000090003869089000386908          0018400361  V4120  20240012024001                 1001NN                              10                                 0
4601A0701  000000000000001               000000000005286CR000000000003583CR000000000000000                                                                              
460045890500000090003869089000386908          0018400361  V4120  20240012024001                 100                                 05                                 0
4601       000000000000001               000000000005286CR000000000003583CR000000000000000                                                                              
460045890500000090003869089000386908          0018400361  V4120  20240012024001                 100                                 06                                 0
4601                                                      000000000003583CR                                                                                             
460045890500000090003869089000386908          0018400361  V4120  20240012024001                                                     01                                 0
4601       000000000000001               000000000005286CR000000000003583CR000000000000000                                                                              
460045890500000090003869089000386908          0018400361  V4120  20240012024001                                                     02                                 0
4601                                                      000000000003583CR                                                                                             
460045890500000090003869089000386908          0018400481  V4120  20240012024001                 1001NN                              10                                 0
4601A0701  000000000000001               000000000017480CR000000000004637CR000000000000000                                                                              
460045890500000090003869089000386908          0018400481  V4120  20240012024001                 100                                 05                                 0
4601       000000000000001               000000000017480CR000000000004637CR000000000000000                                                                              
460045890500000090003869089000386908          0018400481  V4120  20240012024001                 100                                 06                                 0
4601                                                      000000000004637CR                                                                                             
460045890500000090003869089000386908          0018400481  V4120  20240012024001                                                     01                                 0
4601       000000000000001               000000000017480CR000000000004637CR000000000000000                                                                              
460045890500000090003869089000386908          0018400481  V4120  20240012024001                                                     02                                 0
4601                                                      000000000004637CR                                                                                             
460045890500000090003869089000386908          0018409861  V4120  20240012024001                 1001NN                              10                                 0
4601A0701  000000000000002               000000000074893CR000000000015425CR000000000000000                                                                              
460045890500000090003869089000386908          0018409861  V4120  20240012024001                 100                                 05                                 0
4601       000000000000002               000000000074893CR000000000015425CR000000000000000                                                                              
460045890500000090003869089000386908          0018409861  V4120  20240012024001                 100                                 06                                 0
4601                                                      000000000015425CR                                                                                             
460045890500000090003869089000386908          0018409861  V4120  20240012024001                                                     01                                 0
4601       000000000000002               000000000074893CR000000000015425CR000000000000000                                                                              
460045890500000090003869089000386908          0018409861  V4120  20240012024001                                                     02                                 0
4601                                                      000000000015425CR                                                                                             
460045890500000090003869089000386908          0018400441  V4120  20240012024001                 1001NN                              10                                 0
4601A0701  000000000000005               000000000044752CR000000000044752CR000000000000000                                                                              
460045890500000090003869089000386908          0018400441  V4120  20240012024001                 100                                 05                                 0
4601       000000000000005               000000000044752CR000000000044752CR000000000000000                                                                              
460045890500000090003869089000386908          0018400441  V4120  20240012024001                 100                                 06                                 0
4601                                                      000000000044752CR                                                                                             
460045890500000090003869089000386908          0018400441  V4120  20240012024001                                                     01                                 0
4601       000000000000005               000000000044752CR000000000044752CR000000000000000                                                                              
460045890500000090003869089000386908          0018400441  V4120  20240012024001                                                     02                                 0
4601                                                      000000000044752CR                                                                                             
460045890500000090003869089000386908          0018401241  V4120  20240012024001                 1001NN                              10                                 0
4601A0701  000000000000489               000000007167503CR000000005400882CR000000000000000                                                                              
460045890500000090003869089000386908          0018401241  V4120  20240012024001                 100                                 05                                 0
4601       000000000000489               000000007167503CR000000005400882CR000000000000000                                                                              
460045890500000090003869089000386908          0018401241  V4120  20240012024001                 100                                 06                                 0
4601                                                      000000005400882CR                                                                                             
460045890500000090003869089000386908          0018401241  V4120  20240012024001                                                     01                                 0
4601       000000000000489               000000007167503CR000000005400882CR000000000000000                                                                              
460045890500000090003869089000386908          0018401241  V4120  20240012024001                                                     02                                 0
4601                                                      000000005400882CR                                                                                             
460045890500000090003869089000386908          0018407561  V4120  20240012024001                 1001NN                              10                                 0
4601A0701  000000000000030               000000000300980CR000000000356019CR000000000000000                                                                              
460045890500000090003869089000386908          0018407561  V4120  20240012024001                 100                                 05                                 0
4601       000000000000030               000000000300980CR000000000356019CR000000000000000                                                                              
460045890500000090003869089000386908          0018407561  V4120  20240012024001                 100                                 06                                 0
4601                                                      000000000356019CR                                                                                             
460045890500000090003869089000386908          0018407561  V4120  20240012024001                                                     01                                 0
4601       000000000000030               000000000300980CR000000000356019CR000000000000000                                                                              
460045890500000090003869089000386908          0018407561  V4120  20240012024001                                                     02                                 0
4601                                                      000000000356019CR                                                                                             
460045890500000090003869089000386908          0018401701  V4120  20240012024001                 1001NN                              10                                 0
4601A0701  000000000000029               000000960673893CR000000000251348CR000000000000000                                                                              
460045890500000090003869089000386908          0018401701  V4120  20240012024001                 100                                 05                                 0
4601       000000000000029               000000960673893CR000000000251348CR000000000000000                                                                              
460045890500000090003869089000386908          0018401701  V4120  20240012024001                 100                                 06                                 0
4601                                                      000000000251348CR                                                                                             
460045890500000090003869089000386908          0018401701  V4120  20240012024001                                                     01                                 0
4601       000000000000029               000000960673893CR000000000251348CR000000000000000                                                                              
460045890500000090003869089000386908          0018401701  V4120  20240012024001                                                     02                                 0
4601                                                      000000000251348CR                                                                                             
460045890500000090003869089000386908          0018401881  V4120  20240012024001                 1001NN                              10                                 0
4601A0701  000000000000002               000000005640126CR000000000010863CR000000000000000                                                                              
460045890500000090003869089000386908          0018401881  V4120  20240012024001                 100                                 05                                 0
4601       000000000000002               000000005640126CR000000000010863CR000000000000000                                                                              
460045890500000090003869089000386908          0018401881  V4120  20240012024001                 100                                 06                                 0
4601                                                      000000000010863CR                                                                                             
460045890500000090003869089000386908          0018401881  V4120  20240012024001                                                     01                                 0
4601       000000000000002               000000005640126CR000000000010863CR000000000000000                                                                              
460045890500000090003869089000386908          0018401881  V4120  20240012024001                                                     02                                 0
4601                                                      000000000010863CR                                                                                             
460045890500000090003869089000386908          0018402031  V4120  20240012024001                 1001NN                              10                                 0
4601A0701  000000000000002               000000000101712CR000000000004539CR000000000000000                                                                              
460045890500000090003869089000386908          0018402031  V4120  20240012024001                 100                                 05                                 0
4601       000000000000002               000000000101712CR000000000004539CR000000000000000                                                                              
460045890500000090003869089000386908          0018402031  V4120  20240012024001                 100                                 06                                 0
4601                                                      000000000004539CR                                                                                             
460045890500000090003869089000386908          0018402031  V4120  20240012024001                                                     01                                 0
4601       000000000000002               000000000101712CR000000000004539CR000000000000000                                                                              
460045890500000090003869089000386908          0018402031  V4120  20240012024001                                                     02                                 0
4601                                                      000000000004539CR                                                                                             
460045890500000090003869089000386908          0018402081  V4120  20240012024001                 1001NN                              10                                 0
4601A0701  000000000000002               000000000050147CR000000000007419CR000000000000000                                                                              
460045890500000090003869089000386908          0018402081  V4120  20240012024001                 100                                 05                                 0
4601       000000000000002               000000000050147CR000000000007419CR000000000000000                                                                              
460045890500000090003869089000386908          0018402081  V4120  20240012024001                 100                                 06                                 0
4601                                                      000000000007419CR                                                                                             
460045890500000090003869089000386908          0018402081  V4120  20240012024001                                                     01                                 0
4601       000000000000002               000000000050147CR000000000007419CR000000000000000                                                                              
460045890500000090003869089000386908          0018402081  V4120  20240012024001                                                     02                                 0
4601                                                      000000000007419CR                                                                                             
460045890500000090003869089000386908          0018402141  V4120  20240012024001                 1001NN                              10                                 0
4601A0697  000000000000046               000000075172427CR000000001304480CR000000000000000                                                                              
460045890500000090003869089000386908          0018402141  V4120  20240012024001                 1001NN                              10                                 0
4601A0698  000000000000055               000000034864748CR000000000605089CR000000000000000                                                                              
460045890500000090003869089000386908          0018402141  V4120  20240012024001                 1001NN                              10                                 0
4601A0699  000000000000096               000000065455484CR000000001131508CR000000000000000                                                                              
460045890500000090003869089000386908          0018402141  V4120  20240012024001                 1001NN                              10                                 0
4601A0700  000000000000161               000000057371681CR000000000990812CR000000000000000                                                                              
460045890500000090003869089000386908          0018402141  V4120  20240012024001                 1001NN                              10                                 0
4601A0701  000000000024351               000010180292718CR000000176048970CR000000000000000                                                                              
460045890500000090003869089000386908          0018402141  V4120  20240012024001                 1001N                               07                                 0
4601       000000000024709               000010413157058CR000000180080859CR000000000000000                                                                              
460045890500000090003869089000386908          0018402141  V4120  20240012024001                 100                                 05                                 0
4601       000000000024709               000010413157058CR000000180080859CR000000000000000                                                                              
460045890500000090003869089000386908          0018402141  V4120  20240012024001                 100                                 06                                 0
4601                                                      000000180080859CR                                                                                             
460045890500000090003869089000386908          0018402141  V4120  20240012024001                 1201NN                              10                                 0
4601A0701  000000000000135               000000357874888CR000000006188760CR000000000000000                                                                              
460045890500000090003869089000386908          0018402141  V4120  20240012024001                 120                                 05                                 0
4601       000000000000135               000000357874888CR000000006188760CR000000000000000                                                                              
460045890500000090003869089000386908          0018402141  V4120  20240012024001                 120                                 06                                 0
4601                                                      000000006188760CR                                                                                             
460045890500000090003869089000386908          0018402141  V4120  20240012024001                                                     01                                 0
4601       000000000024844               000010771031946CR000000186269619CR000000000000000                                                                              
460045890500000090003869089000386908          0018402141  V4120  20240012024001                                                     02                                 0
4601                                                      000000186269619CR                                                                                             
460045890500000090003869089000386908          0018409781  V4120  20240012024001                 1001NN                              10                                 0
4601A0701  000000000000359               000000001932110CR000000002131500CR000000000000000                                                                              
460045890500000090003869089000386908          0018409781  V4120  20240012024001                 100                                 05                                 0
4601       000000000000359               000000001932110CR000000002131500CR000000000000000                                                                              
460045890500000090003869089000386908          0018409781  V4120  20240012024001                 100                                 06                                 0
4601                                                      000000002131500CR                                                                                             
460045890500000090003869089000386908          0018409781  V4120  20240012024001                 1201NN                              10                                 0
4601A0701  000000000000001               000000000005768CR000000000006363CR000000000000000                                                                              
460045890500000090003869089000386908          0018409781  V4120  20240012024001                 120                                 05                                 0
4601       000000000000001               000000000005768CR000000000006363CR000000000000000                                                                              
460045890500000090003869089000386908          0018409781  V4120  20240012024001                 120                                 06                                 0
4601                                                      000000000006363CR                                                                                             
460045890500000090003869089000386908          0018409781  V4120  20240012024001                                                     01                                 0
4601       000000000000360               000000001937878CR000000002137863CR000000000000000                                                                              
460045890500000090003869089000386908          0018409781  V4120  20240012024001                                                     02                                 0
4601                                                      000000002137863CR                                                                                             
460045890500000090003869089000386908          0018408261  V4120  20240012024001                 1001NN                              10                                 0
4601A0701  000000000000035               000000000169256CR000000000214903CR000000000000000                                                                              
460045890500000090003869089000386908          0018408261  V4120  20240012024001                 100                                 05                                 0
4601       000000000000035               000000000169256CR000000000214903CR000000000000000                                                                              
460045890500000090003869089000386908          0018408261  V4120  20240012024001                 100                                 06                                 0
4601                                                      000000000214903CR                                                                                             
460045890500000090003869089000386908          0018408261  V4120  20240012024001                 1201NN                              10                                 0
4601A0701  000000000000001               000000000009426CR000000000011968CR000000000000000                                                                              
460045890500000090003869089000386908          0018408261  V4120  20240012024001                 120                                 05                                 0
4601       000000000000001               000000000009426CR000000000011968CR000000000000000                                                                              
460045890500000090003869089000386908          0018408261  V4120  20240012024001                 120                                 06                                 0
4601                                                      000000000011968CR                                                                                             
460045890500000090003869089000386908          0018408261  V4120  20240012024001                                                     01                                 0
4601       000000000000036               000000000178682CR000000000226871CR000000000000000                                                                              
460045890500000090003869089000386908          0018408261  V4120  20240012024001                                                     02                                 0
4601                                                      000000000226871CR                                                                                             
460045890500000090003869089000386908          0018403201  V4120  20240012024001                 1001NN                              10                                 0
4601A0701  000000000000004               000000000054528CR000000000006977CR000000000000000                                                                              
460045890500000090003869089000386908          0018403201  V4120  20240012024001                 100                                 05                                 0
4601       000000000000004               000000000054528CR000000000006977CR000000000000000                                                                              
460045890500000090003869089000386908          0018403201  V4120  20240012024001                 100                                 06                                 0
4601                                                      000000000006977CR                                                                                             
460045890500000090003869089000386908          0018403201  V4120  20240012024001                                                     01                                 0
4601       000000000000004               000000000054528CR000000000006977CR000000000000000                                                                              
460045890500000090003869089000386908          0018403201  V4120  20240012024001                                                     02                                 0
4601                                                      000000000006977CR                                                                                             
460045890500000090003869089000386908          0018403401  V4120  20240012024001                 1001NN                              10                                 0
4601A0701  000000000000003               000000000178781CR000000000007260CR000000000000000                                                                              
460045890500000090003869089000386908          0018403401  V4120  20240012024001                 100                                 05                                 0
4601       000000000000003               000000000178781CR000000000007260CR000000000000000                                                                              
460045890500000090003869089000386908          0018403401  V4120  20240012024001                 100                                 06                                 0
4601                                                      000000000007260CR                                                                                             
460045890500000090003869089000386908          0018403401  V4120  20240012024001                                                     01                                 0
4601       000000000000003               000000000178781CR000000000007260CR000000000000000                                                                              
460045890500000090003869089000386908          0018403401  V4120  20240012024001                                                     02                                 0
4601                                                      000000000007260CR                                                                                             
460045890500000090003869089000386908          0018403321  V4120  20240012024001                 1001NN                              10                                 0
4601A0701  000000000000005               000000004535157CR000000000034235CR000000000000000                                                                              
460045890500000090003869089000386908          0018403321  V4120  20240012024001                 100                                 05                                 0
4601       000000000000005               000000004535157CR000000000034235CR000000000000000                                                                              
460045890500000090003869089000386908          0018403321  V4120  20240012024001                 100                                 06                                 0
4601                                                      000000000034235CR                                                                                             
460045890500000090003869089000386908          0018403321  V4120  20240012024001                                                     01                                 0
4601       000000000000005               000000004535157CR000000000034235CR000000000000000                                                                              
460045890500000090003869089000386908          0018403321  V4120  20240012024001                                                     02                                 0
4601                                                      000000000034235CR                                                                                             
460045890500000090003869089000386908          0018403881  V4120  20240012024001                 1001NN                              10                                 0
4601A0701  000000000000003               000000006067058CR000000000039615CR000000000000000                                                                              
460045890500000090003869089000386908          0018403881  V4120  20240012024001                 100                                 05                                 0
4601       000000000000003               000000006067058CR000000000039615CR000000000000000                                                                              
460045890500000090003869089000386908          0018403881  V4120  20240012024001                 100                                 06                                 0
4601                                                      000000000039615CR                                                                                             
460045890500000090003869089000386908          0018403881  V4120  20240012024001                                                     01                                 0
4601       000000000000003               000000006067058CR000000000039615CR000000000000000                                                                              
460045890500000090003869089000386908          0018403881  V4120  20240012024001                                                     02                                 0
4601                                                      000000000039615CR                                                                                             
460045890500000090003869089000386908          0018403921  V4120  20240012024001                 1001NN                              10                                 0
4601A0701  000000000000001               000000000000331CR000000000000233CR000000000000000                                                                              
460045890500000090003869089000386908          0018403921  V4120  20240012024001                 100                                 05                                 0
4601       000000000000001               000000000000331CR000000000000233CR000000000000000                                                                              
460045890500000090003869089000386908          0018403921  V4120  20240012024001                 100                                 06                                 0
4601                                                      000000000000233CR                                                                                             
460045890500000090003869089000386908          0018403921  V4120  20240012024001                                                     01                                 0
4601       000000000000001               000000000000331CR000000000000233CR000000000000000                                                                              
460045890500000090003869089000386908          0018403921  V4120  20240012024001                                                     02                                 0
4601                                                      000000000000233CR                                                                                             
460045890500000090003869089000386908          0018401361  V4120  20240012024001                 1001NN                              10                                 0
4601A0701  000000000000001               000000000012771CR000000000015325CR000000000000000                                                                              
460045890500000090003869089000386908          0018401361  V4120  20240012024001                 100                                 05                                 0
4601       000000000000001               000000000012771CR000000000015325CR000000000000000                                                                              
460045890500000090003869089000386908          0018401361  V4120  20240012024001                 100                                 06                                 0
4601                                                      000000000015325CR                                                                                             
460045890500000090003869089000386908          0018401361  V4120  20240012024001                                                     01                                 0
4601       000000000000001               000000000012771CR000000000015325CR000000000000000                                                                              
460045890500000090003869089000386908          0018401361  V4120  20240012024001                                                     02                                 0
4601                                                      000000000015325CR                                                                                             
460045890500000090003869089000386908          0018404841  V4120  20240012024001                 1001NN                              10                                 0
4601A0701  000000000000072               000000008421240CR000000000497739CR000000000000000                                                                              
460045890500000090003869089000386908          0018404841  V4120  20240012024001                 100                                 05                                 0
4601       000000000000072               000000008421240CR000000000497739CR000000000000000                                                                              
460045890500000090003869089000386908          0018404841  V4120  20240012024001                 100                                 06                                 0
4601                                                      000000000497739CR                                                                                             
460045890500000090003869089000386908          0018404841  V4120  20240012024001                                                     01                                 0
4601       000000000000072               000000008421240CR000000000497739CR000000000000000                                                                              
460045890500000090003869089000386908          0018404841  V4120  20240012024001                                                     02                                 0
4601                                                      000000000497739CR                                                                                             
460045890500000090003869089000386908          0018405781  V4120  20240012024001                 1001NN                              10                                 0
4601A0701  000000000000006               000000000173467CR000000000016986CR000000000000000                                                                              
460045890500000090003869089000386908          0018405781  V4120  20240012024001                 100                                 05                                 0
4601       000000000000006               000000000173467CR000000000016986CR000000000000000                                                                              
460045890500000090003869089000386908          0018405781  V4120  20240012024001                 100                                 06                                 0
4601                                                      000000000016986CR                                                                                             
460045890500000090003869089000386908          0018405781  V4120  20240012024001                                                     01                                 0
4601       000000000000006               000000000173467CR000000000016986CR000000000000000                                                                              
460045890500000090003869089000386908          0018405781  V4120  20240012024001                                                     02                                 0
4601                                                      000000000016986CR                                                                                             
460045890500000090003869089000386908          0018409851  V4120  20240012024001                 1001NN                              10                                 0
4601A0701  000000000000007               000000001044807CR000000000265071CR000000000000000                                                                              
460045890500000090003869089000386908          0018409851  V4120  20240012024001                 100                                 05                                 0
4601       000000000000007               000000001044807CR000000000265071CR000000000000000                                                                              
460045890500000090003869089000386908          0018409851  V4120  20240012024001                 100                                 06                                 0
4601                                                      000000000265071CR                                                                                             
460045890500000090003869089000386908          0018409851  V4120  20240012024001                                                     01                                 0
4601       000000000000007               000000001044807CR000000000265071CR000000000000000                                                                              
460045890500000090003869089000386908          0018409851  V4120  20240012024001                                                     02                                 0
4601                                                      000000000265071CR                                                                                             
460045890500000090003869089000386908          0018409461  V4120  20240012024001                 1001NN                              10                                 0
4601A0701  000000000000001               000000000010218CR000000000002265CR000000000000000                                                                              
460045890500000090003869089000386908          0018409461  V4120  20240012024001                 100                                 05                                 0
4601       000000000000001               000000000010218CR000000000002265CR000000000000000                                                                              
460045890500000090003869089000386908          0018409461  V4120  20240012024001                 100                                 06                                 0
4601                                                      000000000002265CR                                                                                             
460045890500000090003869089000386908          0018409461  V4120  20240012024001                                                     01                                 0
4601       000000000000001               000000000010218CR000000000002265CR000000000000000                                                                              
460045890500000090003869089000386908          0018409461  V4120  20240012024001                                                     02                                 0
4601                                                      000000000002265CR                                                                                             
460045890500000090003869089000386908          0018407521  V4120  20240012024001                 1001NN                              10                                 0
4601A0701  000000000000003               000000000037863CR000000000003747CR000000000000000                                                                              
460045890500000090003869089000386908          0018407521  V4120  20240012024001                 100                                 05                                 0
4601       000000000000003               000000000037863CR000000000003747CR000000000000000                                                                              
460045890500000090003869089000386908          0018407521  V4120  20240012024001                 100                                 06                                 0
4601                                                      000000000003747CR                                                                                             
460045890500000090003869089000386908          0018407521  V4120  20240012024001                                                     01                                 0
4601       000000000000003               000000000037863CR000000000003747CR000000000000000                                                                              
460045890500000090003869089000386908          0018407521  V4120  20240012024001                                                     02                                 0
4601                                                      000000000003747CR                                                                                             
460045890500000090003869089000386908          0018407021  V4120  20240012024001                 1001NN                              10                                 0
4601A0701  000000000000001               000000000000912CR000000000000690CR000000000000000                                                                              
460045890500000090003869089000386908          0018407021  V4120  20240012024001                 100                                 05                                 0
4601       000000000000001               000000000000912CR000000000000690CR000000000000000                                                                              
