90        23244                                                 CARDNT16      770                                                                                         
05  00483181408**********   74589053244008347087001000000010607000000000000   000000037170214GUSTOP                   SANTO DOMINGODO 549900000     1008N4892085 1 053244B
05  01            000000                                                          34909315500000000699827000000000669  3244    0 V 001                         0000000000 
05  0558315911006527400000003717021400        0000 000000000000N                                                             000000000000I                                
05  0700001230607E0B8C8214        03020A1404503800F011E270C46D669F0112008000800003A420C2000000037170                  06                                20700000          
05  00423421001**********   74589053244008346863964000000010611000000000000   000000035000214TRACYS LOUNGE            SANTO DOMINGODO 581300000     1008N9512775 1 053244B
05  01            000000                                                          34910987800000000768074000000000662  3244    0 V 201                         0000000000 
05  0530316314027848300000003500021400        0000 000000000000N                                                             000000000000F                                
05  0700000230611E0B8C8214        E1C51BCA004C3800AC3DC61171EE11A00112008000800003A0A003000000035000                  06                                20700000          
05  00466905000**********   74589053244008346878814000000010624000000000000   000000165000214COL MONTE SINAI-SS       BARAHONA     DO 939900000     1008N4787115 1 053244B
05  01            000000 *                                                        349184711000   00877039000000001782  3244    0 V 201                         0000000000 
05  0546317561064576500000016500021400        0000 000000000000N                                                             000000000000F                                
05  0700000230624E0B8C8214        3BCAAC84000938003D8911D13CE224CB0112008000800003A03003000000165000                  06                                20700000          
05  00466905000**********   74589053244008346878822000000010624000000000000   000000165000214COL MONTE SINAI-SS       BARAHONA     DO 939900000     1008N4793285 1 053244B
05  01            000000 *                                                        349184711000   00877039000000001782  3244    0 V 201                         0000000000 
05  0530317561119783400000016500021400        0000 000000000000N                                                             000000000000F                                
05  0700000230624E0B8C8214        A4763E1D000A3800D0DA94847C0688B60112008000800003A02003000000165000                  06                                20700000          
05  00456334051**********   74589053244008347087399000000010715000000000000   000000014800214GUSTOP                   SANTO DOMINGODO 549900000     1008N5537195 1 073244B
05  01            000000                                                          34909315500000000699827000000000266  3244    0 V 001                         0000000000 
05  0558319668137604900000001480021400        0000 000000000000N                                                             000000000000F                                
05  0700001230715E02848214        412B7AEA011820004EE5A732F1C5A721010A000000000003A02000000000014800                  06                                20700000          
92  0000000003244000000000000000000000122131000447000000445337000000        000122579000000000000000000000018538232440000000000000000000000000000000000000000000000       
